{
  "_format": "hh-sol-artifact-1",
  "contractName": "Lottery",
  "sourceName": "contracts/lottery.sol",
  "abi": [
    {
      "inputs": [],
      "stateMutability": "nonpayable",
      "type": "constructor"
    },
    {
      "anonymous": false,
      "inputs": [],
      "name": "VRF",
      "type": "event"
    },
    {
      "inputs": [],
      "name": "counter",
      "outputs": [
        {
          "internalType": "uint256",
          "name": "",
          "type": "uint256"
        }
      ],
      "stateMutability": "view",
      "type": "function"
    },
    {
      "inputs": [
        {
          "internalType": "uint256",
          "name": "_random",
          "type": "uint256"
        }
      ],
      "name": "fullFillRandomness",
      "outputs": [],
      "stateMutability": "nonpayable",
      "type": "function"
    },
    {
      "inputs": [],
      "name": "oracle",
      "outputs": [
        {
          "internalType": "address",
          "name": "",
          "type": "address"
        }
      ],
      "stateMutability": "view",
      "type": "function"
    },
    {
      "inputs": [],
      "name": "owner",
      "outputs": [
        {
          "internalType": "address",
          "name": "",
          "type": "address"
        }
      ],
      "stateMutability": "view",
      "type": "function"
    },
    {
      "inputs": [],
      "name": "play",
      "outputs": [],
      "stateMutability": "payable",
      "type": "function"
    },
    {
      "inputs": [
        {
          "internalType": "uint256",
          "name": "",
          "type": "uint256"
        }
      ],
      "name": "player",
      "outputs": [
        {
          "internalType": "address",
          "name": "",
          "type": "address"
        }
      ],
      "stateMutability": "view",
      "type": "function"
    },
    {
      "inputs": [],
      "name": "price",
      "outputs": [
        {
          "internalType": "uint256",
          "name": "",
          "type": "uint256"
        }
      ],
      "stateMutability": "view",
      "type": "function"
    },
    {
      "inputs": [
        {
          "internalType": "address",
          "name": "_oracle",
          "type": "address"
        }
      ],
      "name": "setOracle",
      "outputs": [],
      "stateMutability": "nonpayable",
      "type": "function"
    },
    {
      "inputs": [],
      "name": "winner",
      "outputs": [
        {
          "internalType": "address",
          "name": "",
          "type": "address"
        }
      ],
      "stateMutability": "view",
      "type": "function"
    }
  ],
  "bytecode": "0x6080604052348015600f57600080fd5b5033600360006101000a81548173ffffffffffffffffffffffffffffffffffffffff021916908373ffffffffffffffffffffffffffffffffffffffff16021790555061080b806100606000396000f3fe6080604052600436106100865760003560e01c806393e84cd91161005957806393e84cd914610135578063966aa31d1461013f5780639e0551c614610168578063a035b1fe146101a5578063dfbf53ae146101d057610086565b806361bc221a1461008b5780637adbf973146100b65780637dc0d1d0146100df5780638da5cb5b1461010a575b600080fd5b34801561009757600080fd5b506100a06101fb565b6040516100ad9190610547565b60405180910390f35b3480156100c257600080fd5b506100dd60048036038101906100d891906105c5565b610201565b005b3480156100eb57600080fd5b506100f46102d5565b6040516101019190610601565b60405180910390f35b34801561011657600080fd5b5061011f6102fb565b60405161012c9190610601565b60405180910390f35b61013d610321565b005b34801561014b57600080fd5b5061016660048036038101906101619190610648565b61040b565b005b34801561017457600080fd5b5061018f600480360381019061018a9190610648565b6104cf565b60405161019c9190610601565b60405180910390f35b3480156101b157600080fd5b506101ba610502565b6040516101c79190610547565b60405180910390f35b3480156101dc57600080fd5b506101e5610508565b6040516101f29190610601565b60405180910390f35b60005481565b600360009054906101000a900473ffffffffffffffffffffffffffffffffffffffff1673ffffffffffffffffffffffffffffffffffffffff163373ffffffffffffffffffffffffffffffffffffffff1614610291576040517f08c379a0000000000000000000000000000000000000000000000000000000008152600401610288906106d2565b60405180910390fd5b80600260006101000a81548173ffffffffffffffffffffffffffffffffffffffff021916908373ffffffffffffffffffffffffffffffffffffffff16021790555050565b600260009054906101000a900473ffffffffffffffffffffffffffffffffffffffff1681565b600360009054906101000a900473ffffffffffffffffffffffffffffffffffffffff1681565b346001548114610366576040517f08c379a000000000000000000000000000000000000000000000000000000000815260040161035d9061073e565b60405180910390fd5b600080600081548092919061037a9061078d565b919050559050336005600083815260200190815260200160002060006101000a81548173ffffffffffffffffffffffffffffffffffffffff021916908373ffffffffffffffffffffffffffffffffffffffff16021790555060638103610407577fa126285b9233810f97012a571e6bea294198b896ccbd342b606ce184594de8a860405160405180910390a15b5050565b60006005600083815260200190815260200160002060009054906101000a900473ffffffffffffffffffffffffffffffffffffffff1690508073ffffffffffffffffffffffffffffffffffffffff166108fc479081150290604051600060405180830381858888f19350505050158015610489573d6000803e3d6000fd5b5080600460006101000a81548173ffffffffffffffffffffffffffffffffffffffff021916908373ffffffffffffffffffffffffffffffffffffffff1602179055505050565b60056020528060005260406000206000915054906101000a900473ffffffffffffffffffffffffffffffffffffffff1681565b60015481565b600460009054906101000a900473ffffffffffffffffffffffffffffffffffffffff1681565b6000819050919050565b6105418161052e565b82525050565b600060208201905061055c6000830184610538565b92915050565b600080fd5b600073ffffffffffffffffffffffffffffffffffffffff82169050919050565b600061059282610567565b9050919050565b6105a281610587565b81146105ad57600080fd5b50565b6000813590506105bf81610599565b92915050565b6000602082840312156105db576105da610562565b5b60006105e9848285016105b0565b91505092915050565b6105fb81610587565b82525050565b600060208201905061061660008301846105f2565b92915050565b6106258161052e565b811461063057600080fd5b50565b6000813590506106428161061c565b92915050565b60006020828403121561065e5761065d610562565b5b600061066c84828501610633565b91505092915050565b600082825260208201905092915050565b7f4e6f205065726d697373696f6e73000000000000000000000000000000000000600082015250565b60006106bc600e83610675565b91506106c782610686565b602082019050919050565b600060208201905081810360008301526106eb816106af565b9050919050565b7f496e73756666696369656e7420666f756e647300000000000000000000000000600082015250565b6000610728601383610675565b9150610733826106f2565b602082019050919050565b600060208201905081810360008301526107578161071b565b9050919050565b7f4e487b7100000000000000000000000000000000000000000000000000000000600052601160045260246000fd5b60006107988261052e565b91507fffffffffffffffffffffffffffffffffffffffffffffffffffffffffffffffff82036107ca576107c961075e565b5b60018201905091905056fea26469706673582212205c8679449b736951d59dece7e61bc72b1be66b707639054d8a7e0ce539a3a88c64736f6c634300081c0033",
  "linkReferences": {},
  "deployedLinkReferences": {}
}